:100000000C9434000C943E000C943E000C943E0082
:100010000C943E000C943E000C943E000C943E0068
:100020000C943E000C943E000C943E000C943E0058
:100030000C943E000C9440000C943E000C943E0046
:100040000C943E000C943E000C943E000C943E0038
:100050000C943E000C943E000C943E000C943E0028
:100060000C943E000C943E0011241FBECFEFD8E04C
:10007000DEBFCDBF0E9472000C948D000C94000076
:100080001F920F920FB60F9211240F900FBE0F9078
:100090001F901895FC01408121E030E001C0220F43
:1000A0006A95EAF7242B20830895FC01808121E0E2
:1000B00030E001C0220F6A95EAF7922F90958923CC
:1000C000808380818181282B21830895FC01908188
:1000D00021E030E001C0220F6A95EAF7209529233C
:1000E0002083089565E084E290E00E944A0065E084
:1000F00085E290E00E946600809181008B7F809372
:1001000081008091810083608093810080916F00E5
:0E011000816080936F007894FFCFF894FFCF4A
:00000001FF
