:100000000C9434000C9451000C9451000C94510049
:100010000C9451000C9451000C9451000C9451001C
:100020000C9451000C9451000C9451000C9451000C
:100030000C9451000C9453000C9451000C945100FA
:100040000C9451000C9451000C9495000C94C30036
:100050000C9451000C9451000C9451000C945100DC
:100060000C9451000C94510011241FBECFEFD8E026
:10007000DEBFCDBF11E0A0E0B1E0E8E7F3E002C0F1
:1000800005900D92A232B107D9F721E0A2E2B1E0CA
:1000900001C01D92A736B207E1F70E949F010C94A0
:1000A000BA010C9400001F920F920FB60F92112408
:1000B0002F933F934F935F936F937F938F939F9370
:1000C000AF93BF93EF93FF93809101019091020151
:1000D0008230910559F083309105B1F0019771F4A8
:1000E000809100018F5F809300010EC0809100011C
:1000F000880F0E9463010E949B0106C081E090E08E
:100100009093020180930101FF91EF91BF91AF9114
:100110009F918F917F916F915F914F913F912F911F
:100120000F900FBE0F901F9018951F920F920FB651
:100130000F9211242F938F939F93EF93FF938091AE
:10014000C0009091C6008C71E0912401EF5FEF71C7
:1001500020912301E21739F0E0932401F0E0E95DFA
:10016000FE4F908301C082E090912201892B809301
:100170002201FF91EF919F918F912F910F900FBED0
:100180000F901F9018951F920F920FB60F92112487
:100190008F939F93EF93FF93909126018091250178
:1001A000981769F0E0912501EF5FEF71E093250169
:1001B000F0E0E95BFE4F80818093C60005C080912E
:1001C000C1008F7D8093C100FF91EF919F918F912E
:1001D0000F900FBE0F901F9018951092260110924D
:1001E0002501109224011092230197FF03C022E001
:1001F0002093C00090789093C5008093C40088E954
:100200008093C10086E08093C200089590912401FC
:10021000809123019817A9F0909123019F5F9F710E
:10022000E92FF0E0E95DFE4F20818091220190935B
:1002300023011092220190E0982F8827820F911DB0
:10024000089580E091E00895909126019F5F9F714D
:10025000209125019217E1F3E92FF0E0E95BFE4FD1
:100260008083909326018091C10080628093C100B9
:100270000895CF93DF93EC018991882319F00E94B0
:100280002401FACFDF91CF910895CF93DF93FC0142
:100290008491EF012196882321F00E942401FE0120
:1002A000F7CFDF91CF91089587B18F7C87B988B15F
:1002B000806388B9E9EBF0E080818C7F808388E9F6
:1002C0008093B800089594EA9093BC009091BC008C
:1002D00097FFFCCF8093BB0084E88093BC008091A3
:1002E000BC0087FFFCCF9091B900987F983119F03E
:1002F00081E0903409F480E008958093BB0084E8A5
:100300008093BC008091BC0087FFFCCF089584ECF3
:100310008093BC008091BC0087FFFCCF8091BB0024
:10032000089584E88093BC008091BC0087FFFCCFD7
:100330008091BB00089584E98093BC0008950E94D9
:10034000540187E690E00E94ED00809181008A7F51
:1003500080938100809181008260809381008091F0
:100360006F00816080936F00789483E091E00E9439
:080370003901FFCFF894FFCF23
:100378000701000D0A5363616E204932432D6275EF
:100388007320666F7220646576696365733A0D0A37
:02039800000063
:00000001FF
