:100000000C9434000C9449000C9449000C94490061
:100010000C9449000C9449000C9449000C9449003C
:100020000C9449000C944B000C9449000C9449002A
:100030000C9449000C9449000C9449000C9449001C
:100040000C9449000C9449000C9449000C9449000C
:100050000C9449000C9449000C9449000C944900FC
:100060000C9449000C94490011241FBECFEFD8E036
:10007000DEBFCDBF11E0A0E0B1E0E2E9F2E002C0F6
:1000800005900D92AA30B107D9F70E9437010C9460
:1000900047010C9400001F920F920FB60F9211248B
:1000A0000F900FBE0F901F901895299A85E08A95A2
:1000B000F1F7000029980895CF93C82F662311F017
:1000C000289A01C02898549A559A569A579A5F9838
:1000D0005E985D985C98C7FD5F9AC6FD5E9AC5FD07
:1000E0005D9AC4FD5C9A0E9455005F985E985D9889
:1000F0005C98C3FD5F9AC2FD5E9AC1FD5D9AC0FD2A
:100100005C9A0E9455005C9A5D9A5E9A5F9A87EBB2
:100110009BE00197F1F700C00000CF910895289867
:100120005D9A5498559856985798299A85E08A95DB
:10013000F1F700004C9B02C080E101C080E04D99C6
:1001400080624E9980644F998068299895E09A95CD
:10015000F1F70000299A95E09A95F1F700004C9983
:1001600081604D9982604E9984604F99886029988A
:10017000089560E00C945C0061E00C945C006111F7
:1001800002C0805801C080540C94B9000E948F00B6
:1001900087FDFCCF85E18A95F1F700000E948F0072
:1001A00090E0089581E00C94B90082E00C94B900CD
:1001B00061E00C945C00CF93DF93EC01899188237C
:1001C00019F00E94D800FACFDF91CF910895CF9314
:1001D000DF93FC018491EF012196882321F00E9496
:1001E000D800FE01F7CFDF91CF910895CF93C82FAC
:1001F000209A559A219A549A559A569A579A8FEF5F
:1002000099EF0197F1F700C000005D9A5C9A0E9497
:1002100055008FE19EE40197F1F700C000000E94B5
:1002200055008FEF90E00197F1F700C000000E94A9
:1002300055008FEF90E00197F1F700C000005C9847
:100240000E9455008FEF90E00197F1F700C0000089
:1002500088E20E94B90088E00E94B9000E94D200A2
:1002600086E00E94B9008C2FCF910C94B9008FE0EA
:100270000E94F60060E081E00E94BF0080E091E013
:100280000E94DB0081E20E94D8007894FFCFF894AE
:02029000FFCF9E
:0A0292004C434420546573740000CF
:00000001FF
