:100000000C9434000C9451000C9451000C94510049
:100010000C9451000C9451000C9451000C9451001C
:100020000C9451000C9451000C9451000C9451000C
:100030000C9451000C945D000C9451000C945100F0
:100040000C9451000C9451000C9449010C947701CC
:100050000C9451000C9453000C9451000C945100DA
:100060000C9451000C94510011241FBECFEFD8E026
:10007000DEBFCDBF11E0A0E0B1E0EEE6F4E002C0EB
:1000800005900D92A231B107D9F721E0A2E1B1E0CC
:1000900001C01D92A735B207E1F70E9408020C9437
:1000A00035020C9400001F920F920FB60F9211248C
:1000B0000F900FBE0F901F9018951F920F920FB6C2
:1000C0000F9211240F900FBE0F901F901895299A30
:1000D00085E08A95F1F7000029980895CF93C82FFD
:1000E000662311F0289A01C02898549A559A569A76
:1000F000579A5F985E985D985C98C7FD5F9AC6FDB9
:100100005E9AC5FD5D9AC4FD5C9A0E9467005F9887
:100110005E985D985C98C3FD5F9AC2FD5E9AC1FDD2
:100120005D9AC0FD5C9A0E9467005C9A5D9A5E9A37
:100130005F9A87EB9BE00197F1F700C00000CF9139
:10014000089528985D9A5498559856985798299AE2
:1001500085E08A95F1F700004C9B02C080E101C068
:1001600080E04D9980624E9980644F99806829980B
:1001700095E09A95F1F70000299A95E09A95F1F7A4
:1001800000004C9981604D9982604E9984604F992E
:1001900088602998089560E00C946E0061E00C94EA
:1001A0006E00611102C0805801C080540C94CB00D5
:1001B0000E94A10087FDFCCF85E18A95F1F7000040
:1001C0000E94A10090E0089581E00C94CB0082E0B1
:1001D0000C94CB0061E00C946E00CF93DF93EC01A4
:1001E0008991882319F00E94EA00FACFDF91CF911C
:1001F0000895CF93DF93FC018491EF01219688232A
:1002000021F00E94EA00FE01F7CFDF91CF9108951F
:10021000CF93C82F209A559A219A549A559A569A54
:10022000579A8FEF99EF0197F1F700C000005D9AA0
:100230005C9A0E9467008FE19EE40197F1F700C08D
:1002400000000E9467008FEF90E00197F1F700C077
:1002500000000E9467008FEF90E00197F1F700C067
:1002600000005C980E9467008FEF90E00197F1F723
:1002700000C0000088E20E94CB0088E00E94CB0012
:100280000E94E40086E00E94CB008C2FCF910C945A
:10029000CB001F920F920FB60F9211242F938F93C2
:1002A0009F93EF93FF938091C0009091C6008C7153
:1002B000E0911401EF5FEF7120911301E21739F023
:1002C000E0931401F0E0E95EFE4F908301C082E00C
:1002D00090911201892B80931201FF91EF919F91D0
:1002E0008F912F910F900FBE0F901F9018951F9216
:1002F0000F920FB60F9211248F939F93EF93FF935A
:100300009091160180911501981769F0E0911501FF
:10031000EF5FEF71E0931501F0E0E95CFE4F808143
:100320008093C60005C08091C1008F7D8093C1007D
:10033000FF91EF919F918F910F900FBE0F901F90A3
:100340001895109216011092150110921401109236
:10035000130197FF03C022E02093C0009078909390
:10036000C5008093C40088E98093C10086E0809333
:10037000C200089590911401809113019817A9F07B
:10038000909113019F5F9F71E92FF0E0E95EFE4FAE
:10039000208180911201909313011092120190E03C
:1003A000982F8827820F911D089580E091E008958D
:1003B000909116019F5F9F71209115019217E1F3B3
:1003C000E92FF0E0E95CFE4F808390931601809165
:1003D000C10080628093C1000895CF93DF93EC0148
:1003E0008991882319F00E94D801FACFDF91CF912B
:1003F0000895CF93DF93FC018491EF012196882328
:1004000021F00E94D801FE01F7CFDF91CF9108952E
:100410008CE00E94080160E081E00E94D10080E051
:1004200091E00E94ED0061E083E00E94D10087E04E
:1004300091E00E94ED0060E088E00E94D1008CE035
:1004400091E00E94ED0060E08DE00E94D1008EE01E
:1004500091E00E94ED0061E088E00E94D10080E11F
:0E04600091E00E94ED007894FFCFF894FFCF5A
:10046E0076616C75653A006B65793A0061006200E1
:02047E00630019
:00000001FF
